{
  "_format": "hh-sol-artifact-1",
  "contractName": "TweetContract",
  "sourceName": "contracts/TwitterContract.sol",
  "abi": [
    {
      "anonymous": false,
      "inputs": [
        {
          "indexed": false,
          "internalType": "uint256",
          "name": "tweetId",
          "type": "uint256"
        },
        {
          "indexed": false,
          "internalType": "string",
          "name": "commentContent",
          "type": "string"
        },
        {
          "indexed": true,
          "internalType": "address",
          "name": "commenter",
          "type": "address"
        },
        {
          "indexed": false,
          "internalType": "uint256",
          "name": "timestamp",
          "type": "uint256"
        }
      ],
      "name": "NewComment",
      "type": "event"
    },
    {
      "anonymous": false,
      "inputs": [
        {
          "indexed": false,
          "internalType": "uint256",
          "name": "tweetId",
          "type": "uint256"
        },
        {
          "indexed": true,
          "internalType": "address",
          "name": "user",
          "type": "address"
        }
      ],
      "name": "NewLike",
      "type": "event"
    },
    {
      "anonymous": false,
      "inputs": [
        {
          "indexed": false,
          "internalType": "uint256",
          "name": "tweetId",
          "type": "uint256"
        },
        {
          "indexed": true,
          "internalType": "address",
          "name": "retweeter",
          "type": "address"
        },
        {
          "indexed": false,
          "internalType": "string",
          "name": "content",
          "type": "string"
        },
        {
          "indexed": false,
          "internalType": "uint256",
          "name": "timestamp",
          "type": "uint256"
        }
      ],
      "name": "NewRetweet",
      "type": "event"
    },
    {
      "anonymous": false,
      "inputs": [
        {
          "indexed": false,
          "internalType": "string",
          "name": "content",
          "type": "string"
        },
        {
          "indexed": true,
          "internalType": "address",
          "name": "author",
          "type": "address"
        },
        {
          "indexed": false,
          "internalType": "uint256",
          "name": "timestamp",
          "type": "uint256"
        }
      ],
      "name": "NewTweet",
      "type": "event"
    },
    {
      "inputs": [
        {
          "internalType": "uint256",
          "name": "tweetId",
          "type": "uint256"
        },
        {
          "internalType": "string",
          "name": "commentContent",
          "type": "string"
        }
      ],
      "name": "commentOnTweet",
      "outputs": [],
      "stateMutability": "nonpayable",
      "type": "function"
    },
    {
      "inputs": [],
      "name": "getAllTweets",
      "outputs": [
        {
          "components": [
            {
              "internalType": "string",
              "name": "content",
              "type": "string"
            },
            {
              "internalType": "address",
              "name": "author",
              "type": "address"
            },
            {
              "internalType": "uint256",
              "name": "timestamp",
              "type": "uint256"
            },
            {
              "internalType": "uint256",
              "name": "likeCount",
              "type": "uint256"
            },
            {
              "internalType": "uint256",
              "name": "retweetCount",
              "type": "uint256"
            }
          ],
          "internalType": "struct TweetContract.Tweet[]",
          "name": "",
          "type": "tuple[]"
        }
      ],
      "stateMutability": "view",
      "type": "function"
    },
    {
      "inputs": [
        {
          "internalType": "uint256",
          "name": "tweetId",
          "type": "uint256"
        }
      ],
      "name": "getComments",
      "outputs": [
        {
          "components": [
            {
              "internalType": "string",
              "name": "commentContent",
              "type": "string"
            },
            {
              "internalType": "address",
              "name": "commenter",
              "type": "address"
            },
            {
              "internalType": "uint256",
              "name": "timestamp",
              "type": "uint256"
            }
          ],
          "internalType": "struct TweetContract.Comment[]",
          "name": "",
          "type": "tuple[]"
        }
      ],
      "stateMutability": "view",
      "type": "function"
    },
    {
      "inputs": [
        {
          "internalType": "uint256",
          "name": "tweetId",
          "type": "uint256"
        }
      ],
      "name": "getLikes",
      "outputs": [
        {
          "internalType": "address[]",
          "name": "",
          "type": "address[]"
        }
      ],
      "stateMutability": "view",
      "type": "function"
    },
    {
      "inputs": [
        {
          "internalType": "uint256",
          "name": "tweetId",
          "type": "uint256"
        }
      ],
      "name": "likeTweet",
      "outputs": [],
      "stateMutability": "nonpayable",
      "type": "function"
    },
    {
      "inputs": [
        {
          "internalType": "string",
          "name": "content",
          "type": "string"
        }
      ],
      "name": "postTweet",
      "outputs": [],
      "stateMutability": "nonpayable",
      "type": "function"
    },
    {
      "inputs": [
        {
          "internalType": "uint256",
          "name": "tweetId",
          "type": "uint256"
        },
        {
          "internalType": "string",
          "name": "newContent",
          "type": "string"
        }
      ],
      "name": "retweet",
      "outputs": [],
      "stateMutability": "nonpayable",
      "type": "function"
    },
    {
      "inputs": [
        {
          "internalType": "uint256",
          "name": "",
          "type": "uint256"
        },
        {
          "internalType": "uint256",
          "name": "",
          "type": "uint256"
        }
      ],
      "name": "tweetComments",
      "outputs": [
        {
          "internalType": "string",
          "name": "commentContent",
          "type": "string"
        },
        {
          "internalType": "address",
          "name": "commenter",
          "type": "address"
        },
        {
          "internalType": "uint256",
          "name": "timestamp",
          "type": "uint256"
        }
      ],
      "stateMutability": "view",
      "type": "function"
    },
    {
      "inputs": [
        {
          "internalType": "uint256",
          "name": "",
          "type": "uint256"
        },
        {
          "internalType": "uint256",
          "name": "",
          "type": "uint256"
        }
      ],
      "name": "tweetLikes",
      "outputs": [
        {
          "internalType": "address",
          "name": "",
          "type": "address"
        }
      ],
      "stateMutability": "view",
      "type": "function"
    },
    {
      "inputs": [
        {
          "internalType": "uint256",
          "name": "",
          "type": "uint256"
        }
      ],
      "name": "tweets",
      "outputs": [
        {
          "internalType": "string",
          "name": "content",
          "type": "string"
        },
        {
          "internalType": "address",
          "name": "author",
          "type": "address"
        },
        {
          "internalType": "uint256",
          "name": "timestamp",
          "type": "uint256"
        },
        {
          "internalType": "uint256",
          "name": "likeCount",
          "type": "uint256"
        },
        {
          "internalType": "uint256",
          "name": "retweetCount",
          "type": "uint256"
        }
      ],
      "stateMutability": "view",
      "type": "function"
    }
  ],
  "bytecode": "0x608060405234801561001057600080fd5b50611a1b806100206000396000f3fe608060405234801561001057600080fd5b506004361061009e5760003560e01c806358fe03bc1161006657806358fe03bc1461016f5780635ffc6ceb1461018b5780639cad7913146101a7578063a209081e146101c3578063e8d857b0146101f35761009e565b806302df54a6146100a35780630cbc3dc4146100d357806323edf697146100ef5780632707ca971461011f5780635325613514610151575b600080fd5b6100bd60048036038101906100b89190610dcb565b610227565b6040516100ca9190610e4c565b60405180910390f35b6100ed60048036038101906100e89190610fad565b610275565b005b61010960048036038101906101049190610ff6565b6103b5565b60405161011691906111d2565b60405180910390f35b61013960048036038101906101349190610dcb565b610519565b6040516101489392919061124d565b60405180910390f35b610159610608565b60405161016691906113c3565b60405180910390f35b610189600480360381019061018491906113e5565b61076d565b005b6101a560048036038101906101a09190610ff6565b6108e6565b005b6101c160048036038101906101bc91906113e5565b610a2d565b005b6101dd60048036038101906101d89190610ff6565b610bf2565b6040516101ea91906114f0565b60405180910390f35b61020d60048036038101906102089190610ff6565b610c93565b60405161021e959493929190611512565b60405180910390f35b6001602052816000526040600020818154811061024357600080fd5b906000526020600020016000915091509054906101000a900473ffffffffffffffffffffffffffffffffffffffff1681565b60006040518060a001604052808381526020013373ffffffffffffffffffffffffffffffffffffffff1681526020014281526020016000815260200160008152509050600081908060018154018082558091505060019003906000526020600020906005020160009091909190915060008201518160000190816102f99190611778565b5060208201518160010160006101000a81548173ffffffffffffffffffffffffffffffffffffffff021916908373ffffffffffffffffffffffffffffffffffffffff16021790555060408201518160020155606082015181600301556080820151816004015550503373ffffffffffffffffffffffffffffffffffffffff167fbd78c9345632ce8b2a45c854cbfd65e892e0adf17b620c0a5b1a79b7ee2b023b83426040516103a992919061184a565b60405180910390a25050565b606060026000838152602001908152602001600020805480602002602001604051908101604052809291908181526020016000905b8282101561050e578382906000526020600020906003020160405180606001604052908160008201805461041d9061159b565b80601f01602080910402602001604051908101604052809291908181526020018280546104499061159b565b80156104965780601f1061046b57610100808354040283529160200191610496565b820191906000526020600020905b81548152906001019060200180831161047957829003601f168201915b505050505081526020016001820160009054906101000a900473ffffffffffffffffffffffffffffffffffffffff1673ffffffffffffffffffffffffffffffffffffffff1673ffffffffffffffffffffffffffffffffffffffff168152602001600282015481525050815260200190600101906103ea565b505050509050919050565b6002602052816000526040600020818154811061053557600080fd5b9060005260206000209060030201600091509150508060000180546105599061159b565b80601f01602080910402602001604051908101604052809291908181526020018280546105859061159b565b80156105d25780601f106105a7576101008083540402835291602001916105d2565b820191906000526020600020905b8154815290600101906020018083116105b557829003601f168201915b5050505050908060010160009054906101000a900473ffffffffffffffffffffffffffffffffffffffff16908060020154905083565b60606000805480602002602001604051908101604052809291908181526020016000905b8282101561076457838290600052602060002090600502016040518060a001604052908160008201805461065f9061159b565b80601f016020809104026020016040519081016040528092919081815260200182805461068b9061159b565b80156106d85780601f106106ad576101008083540402835291602001916106d8565b820191906000526020600020905b8154815290600101906020018083116106bb57829003601f168201915b505050505081526020016001820160009054906101000a900473ffffffffffffffffffffffffffffffffffffffff1673ffffffffffffffffffffffffffffffffffffffff1673ffffffffffffffffffffffffffffffffffffffff16815260200160028201548152602001600382015481526020016004820154815250508152602001906001019061062c565b50505050905090565b60008054905082106107b4576040517f08c379a00000000000000000000000000000000000000000000000000000000081526004016107ab906118c6565b60405180910390fd5b600060405180606001604052808381526020013373ffffffffffffffffffffffffffffffffffffffff16815260200142815250905060026000848152602001908152602001600020819080600181540180825580915050600190039060005260206000209060030201600090919091909150600082015181600001908161083b9190611778565b5060208201518160010160006101000a81548173ffffffffffffffffffffffffffffffffffffffff021916908373ffffffffffffffffffffffffffffffffffffffff1602179055506040820151816002015550503373ffffffffffffffffffffffffffffffffffffffff167fa375f96520c2d96681c552e843779ed114ea0341e7cb3ad6eaf09b1ec6add7558484426040516108d9939291906118e6565b60405180910390a2505050565b600080549050811061092d576040517f08c379a0000000000000000000000000000000000000000000000000000000008152600401610924906118c6565b60405180910390fd5b60016000828152602001908152602001600020339080600181540180825580915050600190039060005260206000200160009091909190916101000a81548173ffffffffffffffffffffffffffffffffffffffff021916908373ffffffffffffffffffffffffffffffffffffffff160217905550600081815481106109b5576109b4611924565b5b906000526020600020906005020160030160008154809291906109d790611982565b91905055503373ffffffffffffffffffffffffffffffffffffffff167f221a800fd0fd31f901a0e51e6fd33129e512175031cc55f71a97e6f5b904ff5582604051610a2291906119ca565b60405180910390a250565b6000805490508210610a74576040517f08c379a0000000000000000000000000000000000000000000000000000000008152600401610a6b906118c6565b60405180910390fd5b60006040518060a001604052808381526020013373ffffffffffffffffffffffffffffffffffffffff168152602001428152602001600081526020016000815250905060008190806001815401808255809150506001900390600052602060002090600502016000909190919091506000820151816000019081610af89190611778565b5060208201518160010160006101000a81548173ffffffffffffffffffffffffffffffffffffffff021916908373ffffffffffffffffffffffffffffffffffffffff160217905550604082015181600201556060820151816003015560808201518160040155505060008381548110610b7457610b73611924565b5b90600052602060002090600502016004016000815480929190610b9690611982565b91905055503373ffffffffffffffffffffffffffffffffffffffff167f3557653bfdf5a5f3014a0db4034c88d11f49f39f94616d7d712f537c2a9a5fdb848442604051610be5939291906118e6565b60405180910390a2505050565b606060016000838152602001908152602001600020805480602002602001604051908101604052809291908181526020018280548015610c8757602002820191906000526020600020905b8160009054906101000a900473ffffffffffffffffffffffffffffffffffffffff1673ffffffffffffffffffffffffffffffffffffffff1681526020019060010190808311610c3d575b50505050509050919050565b60008181548110610ca357600080fd5b9060005260206000209060050201600091509050806000018054610cc69061159b565b80601f0160208091040260200160405190810160405280929190818152602001828054610cf29061159b565b8015610d3f5780601f10610d1457610100808354040283529160200191610d3f565b820191906000526020600020905b815481529060010190602001808311610d2257829003601f168201915b5050505050908060010160009054906101000a900473ffffffffffffffffffffffffffffffffffffffff16908060020154908060030154908060040154905085565b6000604051905090565b600080fd5b600080fd5b6000819050919050565b610da881610d95565b8114610db357600080fd5b50565b600081359050610dc581610d9f565b92915050565b60008060408385031215610de257610de1610d8b565b5b6000610df085828601610db6565b9250506020610e0185828601610db6565b9150509250929050565b600073ffffffffffffffffffffffffffffffffffffffff82169050919050565b6000610e3682610e0b565b9050919050565b610e4681610e2b565b82525050565b6000602082019050610e616000830184610e3d565b92915050565b600080fd5b600080fd5b6000601f19601f8301169050919050565b7f4e487b7100000000000000000000000000000000000000000000000000000000600052604160045260246000fd5b610eba82610e71565b810181811067ffffffffffffffff82111715610ed957610ed8610e82565b5b80604052505050565b6000610eec610d81565b9050610ef88282610eb1565b919050565b600067ffffffffffffffff821115610f1857610f17610e82565b5b610f2182610e71565b9050602081019050919050565b82818337600083830152505050565b6000610f50610f4b84610efd565b610ee2565b905082815260208101848484011115610f6c57610f6b610e6c565b5b610f77848285610f2e565b509392505050565b600082601f830112610f9457610f93610e67565b5b8135610fa4848260208601610f3d565b91505092915050565b600060208284031215610fc357610fc2610d8b565b5b600082013567ffffffffffffffff811115610fe157610fe0610d90565b5b610fed84828501610f7f565b91505092915050565b60006020828403121561100c5761100b610d8b565b5b600061101a84828501610db6565b91505092915050565b600081519050919050565b600082825260208201905092915050565b6000819050602082019050919050565b600081519050919050565b600082825260208201905092915050565b60005b8381101561108957808201518184015260208101905061106e565b60008484015250505050565b60006110a08261104f565b6110aa818561105a565b93506110ba81856020860161106b565b6110c381610e71565b840191505092915050565b6110d781610e2b565b82525050565b6110e681610d95565b82525050565b600060608301600083015184820360008601526111098282611095565b915050602083015161111e60208601826110ce565b50604083015161113160408601826110dd565b508091505092915050565b600061114883836110ec565b905092915050565b6000602082019050919050565b600061116882611023565b611172818561102e565b9350836020820285016111848561103f565b8060005b858110156111c057848403895281516111a1858261113c565b94506111ac83611150565b925060208a01995050600181019050611188565b50829750879550505050505092915050565b600060208201905081810360008301526111ec818461115d565b905092915050565b600082825260208201905092915050565b60006112108261104f565b61121a81856111f4565b935061122a81856020860161106b565b61123381610e71565b840191505092915050565b61124781610d95565b82525050565b600060608201905081810360008301526112678186611205565b90506112766020830185610e3d565b611283604083018461123e565b949350505050565b600081519050919050565b600082825260208201905092915050565b6000819050602082019050919050565b600060a08301600083015184820360008601526112d48282611095565b91505060208301516112e960208601826110ce565b5060408301516112fc60408601826110dd565b50606083015161130f60608601826110dd565b50608083015161132260808601826110dd565b508091505092915050565b600061133983836112b7565b905092915050565b6000602082019050919050565b60006113598261128b565b6113638185611296565b935083602082028501611375856112a7565b8060005b858110156113b15784840389528151611392858261132d565b945061139d83611341565b925060208a01995050600181019050611379565b50829750879550505050505092915050565b600060208201905081810360008301526113dd818461134e565b905092915050565b600080604083850312156113fc576113fb610d8b565b5b600061140a85828601610db6565b925050602083013567ffffffffffffffff81111561142b5761142a610d90565b5b61143785828601610f7f565b9150509250929050565b600081519050919050565b600082825260208201905092915050565b6000819050602082019050919050565b600061147983836110ce565b60208301905092915050565b6000602082019050919050565b600061149d82611441565b6114a7818561144c565b93506114b28361145d565b8060005b838110156114e35781516114ca888261146d565b97506114d583611485565b9250506001810190506114b6565b5085935050505092915050565b6000602082019050818103600083015261150a8184611492565b905092915050565b600060a082019050818103600083015261152c8188611205565b905061153b6020830187610e3d565b611548604083018661123e565b611555606083018561123e565b611562608083018461123e565b9695505050505050565b7f4e487b7100000000000000000000000000000000000000000000000000000000600052602260045260246000fd5b600060028204905060018216806115b357607f821691505b6020821081036115c6576115c561156c565b5b50919050565b60008190508160005260206000209050919050565b60006020601f8301049050919050565b600082821b905092915050565b60006008830261162e7fffffffffffffffffffffffffffffffffffffffffffffffffffffffffffffffff826115f1565b61163886836115f1565b95508019841693508086168417925050509392505050565b6000819050919050565b600061167561167061166b84610d95565b611650565b610d95565b9050919050565b6000819050919050565b61168f8361165a565b6116a361169b8261167c565b8484546115fe565b825550505050565b600090565b6116b86116ab565b6116c3818484611686565b505050565b5b818110156116e7576116dc6000826116b0565b6001810190506116c9565b5050565b601f82111561172c576116fd816115cc565b611706846115e1565b81016020851015611715578190505b611729611721856115e1565b8301826116c8565b50505b505050565b600082821c905092915050565b600061174f60001984600802611731565b1980831691505092915050565b6000611768838361173e565b9150826002028217905092915050565b6117818261104f565b67ffffffffffffffff81111561179a57611799610e82565b5b6117a4825461159b565b6117af8282856116eb565b600060209050601f8311600181146117e257600084156117d0578287015190505b6117da858261175c565b865550611842565b601f1984166117f0866115cc565b60005b82811015611818578489015182556001820191506020850194506020810190506117f3565b868310156118355784890151611831601f89168261173e565b8355505b6001600288020188555050505b505050505050565b600060408201905081810360008301526118648185611205565b9050611873602083018461123e565b9392505050565b7f496e76616c696420747765657420494400000000000000000000000000000000600082015250565b60006118b06010836111f4565b91506118bb8261187a565b602082019050919050565b600060208201905081810360008301526118df816118a3565b9050919050565b60006060820190506118fb600083018661123e565b818103602083015261190d8185611205565b905061191c604083018461123e565b949350505050565b7f4e487b7100000000000000000000000000000000000000000000000000000000600052603260045260246000fd5b7f4e487b7100000000000000000000000000000000000000000000000000000000600052601160045260246000fd5b600061198d82610d95565b91507fffffffffffffffffffffffffffffffffffffffffffffffffffffffffffffffff82036119bf576119be611953565b5b600182019050919050565b60006020820190506119df600083018461123e565b9291505056fea264697066735822122009840187cb1b4340fea7d138be861d26544db4779d75f70e12750c965ae6ef2364736f6c63430008180033",
  "linkReferences": {},
  "deployedLinkReferences": {}
}