{
  "_format": "hh-sol-artifact-1",
  "contractName": "TweetContract",
  "sourceName": "contracts/TwitterContract.sol",
  "abi": [
    {
      "anonymous": false,
      "inputs": [
        {
          "indexed": false,
          "internalType": "string",
          "name": "content",
          "type": "string"
        },
        {
          "indexed": true,
          "internalType": "address",
          "name": "author",
          "type": "address"
        },
        {
          "indexed": false,
          "internalType": "uint256",
          "name": "timestamp",
          "type": "uint256"
        }
      ],
      "name": "NewTweet",
      "type": "event"
    },
    {
      "inputs": [],
      "name": "getAllTweets",
      "outputs": [
        {
          "components": [
            {
              "internalType": "string",
              "name": "content",
              "type": "string"
            },
            {
              "internalType": "address",
              "name": "author",
              "type": "address"
            },
            {
              "internalType": "uint256",
              "name": "timestamp",
              "type": "uint256"
            }
          ],
          "internalType": "struct TweetContract.Tweet[]",
          "name": "",
          "type": "tuple[]"
        }
      ],
      "stateMutability": "view",
      "type": "function"
    },
    {
      "inputs": [
        {
          "internalType": "string",
          "name": "content",
          "type": "string"
        }
      ],
      "name": "postTweet",
      "outputs": [],
      "stateMutability": "nonpayable",
      "type": "function"
    },
    {
      "inputs": [
        {
          "internalType": "uint256",
          "name": "",
          "type": "uint256"
        }
      ],
      "name": "tweets",
      "outputs": [
        {
          "internalType": "string",
          "name": "content",
          "type": "string"
        },
        {
          "internalType": "address",
          "name": "author",
          "type": "address"
        },
        {
          "internalType": "uint256",
          "name": "timestamp",
          "type": "uint256"
        }
      ],
      "stateMutability": "view",
      "type": "function"
    }
  ],
  "bytecode": "0x608060405234801561001057600080fd5b50610bf6806100206000396000f3fe608060405234801561001057600080fd5b50600436106100415760003560e01c80630cbc3dc4146100465780635325613514610062578063e8d857b014610080575b600080fd5b610060600480360381019061005b919061055d565b6100b2565b005b61006a6101d0565b6040516100779190610791565b60405180910390f35b61009a600480360381019061009591906107df565b610321565b6040516100a993929190610874565b60405180910390f35b600060405180606001604052808381526020013373ffffffffffffffffffffffffffffffffffffffff168152602001428152509050600081908060018154018082558091505060019003906000526020600020906003020160009091909190915060008201518160000190816101289190610abe565b5060208201518160010160006101000a81548173ffffffffffffffffffffffffffffffffffffffff021916908373ffffffffffffffffffffffffffffffffffffffff1602179055506040820151816002015550503373ffffffffffffffffffffffffffffffffffffffff167fbd78c9345632ce8b2a45c854cbfd65e892e0adf17b620c0a5b1a79b7ee2b023b83426040516101c4929190610b90565b60405180910390a25050565b60606000805480602002602001604051908101604052809291908181526020016000905b828210156103185783829060005260206000209060030201604051806060016040529081600082018054610227906108e1565b80601f0160208091040260200160405190810160405280929190818152602001828054610253906108e1565b80156102a05780601f10610275576101008083540402835291602001916102a0565b820191906000526020600020905b81548152906001019060200180831161028357829003601f168201915b505050505081526020016001820160009054906101000a900473ffffffffffffffffffffffffffffffffffffffff1673ffffffffffffffffffffffffffffffffffffffff1673ffffffffffffffffffffffffffffffffffffffff168152602001600282015481525050815260200190600101906101f4565b50505050905090565b6000818154811061033157600080fd5b9060005260206000209060030201600091509050806000018054610354906108e1565b80601f0160208091040260200160405190810160405280929190818152602001828054610380906108e1565b80156103cd5780601f106103a2576101008083540402835291602001916103cd565b820191906000526020600020905b8154815290600101906020018083116103b057829003601f168201915b5050505050908060010160009054906101000a900473ffffffffffffffffffffffffffffffffffffffff16908060020154905083565b6000604051905090565b600080fd5b600080fd5b600080fd5b600080fd5b6000601f19601f8301169050919050565b7f4e487b7100000000000000000000000000000000000000000000000000000000600052604160045260246000fd5b61046a82610421565b810181811067ffffffffffffffff8211171561048957610488610432565b5b80604052505050565b600061049c610403565b90506104a88282610461565b919050565b600067ffffffffffffffff8211156104c8576104c7610432565b5b6104d182610421565b9050602081019050919050565b82818337600083830152505050565b60006105006104fb846104ad565b610492565b90508281526020810184848401111561051c5761051b61041c565b5b6105278482856104de565b509392505050565b600082601f83011261054457610543610417565b5b81356105548482602086016104ed565b91505092915050565b6000602082840312156105735761057261040d565b5b600082013567ffffffffffffffff81111561059157610590610412565b5b61059d8482850161052f565b91505092915050565b600081519050919050565b600082825260208201905092915050565b6000819050602082019050919050565b600081519050919050565b600082825260208201905092915050565b60005b8381101561060c5780820151818401526020810190506105f1565b60008484015250505050565b6000610623826105d2565b61062d81856105dd565b935061063d8185602086016105ee565b61064681610421565b840191505092915050565b600073ffffffffffffffffffffffffffffffffffffffff82169050919050565b600061067c82610651565b9050919050565b61068c81610671565b82525050565b6000819050919050565b6106a581610692565b82525050565b600060608301600083015184820360008601526106c88282610618565b91505060208301516106dd6020860182610683565b5060408301516106f0604086018261069c565b508091505092915050565b600061070783836106ab565b905092915050565b6000602082019050919050565b6000610727826105a6565b61073181856105b1565b935083602082028501610743856105c2565b8060005b8581101561077f578484038952815161076085826106fb565b945061076b8361070f565b925060208a01995050600181019050610747565b50829750879550505050505092915050565b600060208201905081810360008301526107ab818461071c565b905092915050565b6107bc81610692565b81146107c757600080fd5b50565b6000813590506107d9816107b3565b92915050565b6000602082840312156107f5576107f461040d565b5b6000610803848285016107ca565b91505092915050565b600082825260208201905092915050565b6000610828826105d2565b610832818561080c565b93506108428185602086016105ee565b61084b81610421565b840191505092915050565b61085f81610671565b82525050565b61086e81610692565b82525050565b6000606082019050818103600083015261088e818661081d565b905061089d6020830185610856565b6108aa6040830184610865565b949350505050565b7f4e487b7100000000000000000000000000000000000000000000000000000000600052602260045260246000fd5b600060028204905060018216806108f957607f821691505b60208210810361090c5761090b6108b2565b5b50919050565b60008190508160005260206000209050919050565b60006020601f8301049050919050565b600082821b905092915050565b6000600883026109747fffffffffffffffffffffffffffffffffffffffffffffffffffffffffffffffff82610937565b61097e8683610937565b95508019841693508086168417925050509392505050565b6000819050919050565b60006109bb6109b66109b184610692565b610996565b610692565b9050919050565b6000819050919050565b6109d5836109a0565b6109e96109e1826109c2565b848454610944565b825550505050565b600090565b6109fe6109f1565b610a098184846109cc565b505050565b5b81811015610a2d57610a226000826109f6565b600181019050610a0f565b5050565b601f821115610a7257610a4381610912565b610a4c84610927565b81016020851015610a5b578190505b610a6f610a6785610927565b830182610a0e565b50505b505050565b600082821c905092915050565b6000610a9560001984600802610a77565b1980831691505092915050565b6000610aae8383610a84565b9150826002028217905092915050565b610ac7826105d2565b67ffffffffffffffff811115610ae057610adf610432565b5b610aea82546108e1565b610af5828285610a31565b600060209050601f831160018114610b285760008415610b16578287015190505b610b208582610aa2565b865550610b88565b601f198416610b3686610912565b60005b82811015610b5e57848901518255600182019150602085019450602081019050610b39565b86831015610b7b5784890151610b77601f891682610a84565b8355505b6001600288020188555050505b505050505050565b60006040820190508181036000830152610baa818561081d565b9050610bb96020830184610865565b939250505056fea264697066735822122018c2bebc26feea969ddc05bfecbcfd9727afd796a601b47549d4ca2effb45b9064736f6c63430008140033",
  "linkReferences": {},
  "deployedLinkReferences": {}
}